{
  "contractName": "KOSCoinflip",
  "abi": [
    {
      "anonymous": false,
      "inputs": [
        {
          "indexed": false,
          "internalType": "address",
          "name": "_transferTo",
          "type": "address"
        },
        {
          "indexed": false,
          "internalType": "address",
          "name": "_transferFrom",
          "type": "address"
        },
        {
          "indexed": false,
          "internalType": "uint256",
          "name": "amount",
          "type": "uint256"
        }
      ],
      "name": "TransferFund",
      "type": "event"
    },
    {
      "constant": true,
      "inputs": [],
      "name": "getPlayer1Address",
      "outputs": [
        {
          "internalType": "address",
          "name": "",
          "type": "address"
        }
      ],
      "payable": false,
      "stateMutability": "view",
      "type": "function"
    },
    {
      "constant": true,
      "inputs": [],
      "name": "getPlayer2Address",
      "outputs": [
        {
          "internalType": "address",
          "name": "",
          "type": "address"
        }
      ],
      "payable": false,
      "stateMutability": "view",
      "type": "function"
    },
    {
      "constant": true,
      "inputs": [],
      "name": "getPlayer1Balance",
      "outputs": [
        {
          "internalType": "uint256",
          "name": "",
          "type": "uint256"
        }
      ],
      "payable": false,
      "stateMutability": "view",
      "type": "function"
    },
    {
      "constant": true,
      "inputs": [],
      "name": "getPlayer2Balance",
      "outputs": [
        {
          "internalType": "uint256",
          "name": "",
          "type": "uint256"
        }
      ],
      "payable": false,
      "stateMutability": "view",
      "type": "function"
    },
    {
      "constant": false,
      "inputs": [
        {
          "internalType": "address",
          "name": "_player1",
          "type": "address"
        },
        {
          "internalType": "address",
          "name": "_player2",
          "type": "address"
        }
      ],
      "name": "setPlayer",
      "outputs": [],
      "payable": false,
      "stateMutability": "nonpayable",
      "type": "function"
    },
    {
      "constant": true,
      "inputs": [
        {
          "internalType": "address",
          "name": "_player1",
          "type": "address"
        },
        {
          "internalType": "uint256",
          "name": "_address1res",
          "type": "uint256"
        },
        {
          "internalType": "address",
          "name": "_player2",
          "type": "address"
        },
        {
          "internalType": "uint256",
          "name": "_address2res",
          "type": "uint256"
        },
        {
          "internalType": "uint256",
          "name": "_someNumber",
          "type": "uint256"
        }
      ],
      "name": "bet",
      "outputs": [
        {
          "internalType": "uint256",
          "name": "",
          "type": "uint256"
        },
        {
          "internalType": "address",
          "name": "",
          "type": "address"
        }
      ],
      "payable": false,
      "stateMutability": "view",
      "type": "function"
    },
    {
      "constant": false,
      "inputs": [
        {
          "internalType": "address payable",
          "name": "_transferTo",
          "type": "address"
        }
      ],
      "name": "transfer",
      "outputs": [
        {
          "internalType": "bool",
          "name": "",
          "type": "bool"
        }
      ],
      "payable": true,
      "stateMutability": "payable",
      "type": "function"
    }
  ],
  "bytecode": "0x608060405234801561001057600080fd5b506105b9806100206000396000f3fe6080604052600436106100705760003560e01c8063a9f346e31161004e578063a9f346e314610199578063e9a6421f146101c4578063ea8404d11461021b578063f5660f05146102f157610070565b80631a69523014610075578063225d76f0146100d15780634302696a14610128575b600080fd5b6100b76004803603602081101561008b57600080fd5b81019080803573ffffffffffffffffffffffffffffffffffffffff16906020019092919050505061031c565b604051808215151515815260200191505060405180910390f35b3480156100dd57600080fd5b506100e661040d565b604051808273ffffffffffffffffffffffffffffffffffffffff1673ffffffffffffffffffffffffffffffffffffffff16815260200191505060405180910390f35b34801561013457600080fd5b506101976004803603604081101561014b57600080fd5b81019080803573ffffffffffffffffffffffffffffffffffffffff169060200190929190803573ffffffffffffffffffffffffffffffffffffffff169060200190929190505050610437565b005b3480156101a557600080fd5b506101ae6104bc565b6040518082815260200191505060405180910390f35b3480156101d057600080fd5b506101d96104c6565b604051808273ffffffffffffffffffffffffffffffffffffffff1673ffffffffffffffffffffffffffffffffffffffff16815260200191505060405180910390f35b34801561022757600080fd5b506102a8600480360360a081101561023e57600080fd5b81019080803573ffffffffffffffffffffffffffffffffffffffff16906020019092919080359060200190929190803573ffffffffffffffffffffffffffffffffffffffff16906020019092919080359060200190929190803590602001909291905050506104ef565b604051808381526020018273ffffffffffffffffffffffffffffffffffffffff1673ffffffffffffffffffffffffffffffffffffffff1681526020019250505060405180910390f35b3480156102fd57600080fd5b50610306610530565b6040518082815260200191505060405180910390f35b60008173ffffffffffffffffffffffffffffffffffffffff166108fc349081150290604051600060405180830381858888f19350505050158015610364573d6000803e3d6000fd5b507f41f7a8a1a70f43ecf6769f65a9933ba3370058d8e3422511a890553ba75ff3e8823334604051808473ffffffffffffffffffffffffffffffffffffffff1673ffffffffffffffffffffffffffffffffffffffff1681526020018373ffffffffffffffffffffffffffffffffffffffff1673ffffffffffffffffffffffffffffffffffffffff168152602001828152602001935050505060405180910390a160019050919050565b6000600160009054906101000a900473ffffffffffffffffffffffffffffffffffffffff16905090565b816000806101000a81548173ffffffffffffffffffffffffffffffffffffffff021916908373ffffffffffffffffffffffffffffffffffffffff16021790555080600160006101000a81548173ffffffffffffffffffffffffffffffffffffffff021916908373ffffffffffffffffffffffffffffffffffffffff1602179055505050565b6000600254905090565b60008060009054906101000a900473ffffffffffffffffffffffffffffffffffffffff16905090565b60008060006104fd8461053a565b90506000818814156105115788905061051e565b8186141561051d578690505b5b81819350935050509550959350505050565b6000600354905090565b600080448360405160200180838152602001828152602001925050506040516020818303038152906040528051906020012060001c90506002818161057b57fe5b0691505091905056fea265627a7a723158207875882bcc289831622a4867cc14fc23f3a506b5620f0b139e5c5e5c5d0cfb4064736f6c63430005100032",
  "source": "pragma solidity >=0.4.22 <0.9.0;\n\ncontract KOSCoinflip {\n    address player1;\n    address player2;\n    uint256 player1Balance;\n    uint256 player2Balance;\n\n    event TransferFund(\n        address _transferTo,\n        address _transferFrom,\n        uint256 amount\n    );\n\n    function getPlayer1Address() public view returns (address) {\n        return player1;\n    }\n\n    function getPlayer2Address() public view returns (address) {\n        return player2;\n    }\n\n    function getPlayer1Balance() public view returns (uint256) {\n        return player1Balance;\n    }\n\n    function getPlayer2Balance() public view returns (uint256) {\n        return player2Balance;\n    }\n\n    function random(uint256 _someNumber) private view returns (uint256) {\n        uint256 randomHash =\n            uint256(keccak256(abi.encodePacked(block.difficulty, _someNumber)));\n        return uint256(randomHash % 2);\n    }\n\n    function setPlayer(address _player1, address _player2) public {\n        player1 = _player1;\n        player2 = _player2;\n    }\n\n    function bet(\n        address _player1,\n        uint256 _address1res,\n        address _player2,\n        uint256 _address2res,\n        uint256 _someNumber\n    ) public view returns (uint256, address) {\n        uint256 answer = random(_someNumber);\n        address winner;\n        if (_address1res == answer) {\n            winner = _player1;\n        } else if (_address2res == answer) {\n            winner = _player2;\n        }\n        return (answer, winner);\n    }\n\n    function transfer(address payable _transferTo)\n        public\n        payable\n        returns (bool)\n    {\n        // transferTo = _transferTo;\n        _transferTo.transfer(msg.value);\n\n        emit TransferFund(_transferTo, msg.sender, msg.value);\n\n        return true;\n    }\n}\n",
  "sourcePath": "/Users/surasith/Desktop/angular/crypto-coin-game/src/app/cores/services/truffle/contracts/KOSCoinflip.sol",
  "compiler": {
    "name": "solc",
    "version": "0.5.16+commit.9c3226ce.Emscripten.clang"
  },
  "schemaVersion": "3.4.1",
  "updatedAt": "2021-06-20T17:29:10.902Z",
  "networkType": "ethereum",
  "devdoc": {
    "methods": {}
  },
  "userdoc": {
    "methods": {}
  }
}