{
  "contractName": "KOSCoinflip",
  "abi": [
    {
      "anonymous": false,
      "inputs": [
        {
          "indexed": false,
          "internalType": "address",
          "name": "_transferTo",
          "type": "address"
        },
        {
          "indexed": false,
          "internalType": "address",
          "name": "_transferFrom",
          "type": "address"
        },
        {
          "indexed": false,
          "internalType": "uint256",
          "name": "amount",
          "type": "uint256"
        }
      ],
      "name": "TransferFund",
      "type": "event"
    },
    {
      "constant": true,
      "inputs": [],
      "name": "getPlayer1Address",
      "outputs": [
        {
          "internalType": "address",
          "name": "",
          "type": "address"
        }
      ],
      "payable": false,
      "stateMutability": "view",
      "type": "function"
    },
    {
      "constant": true,
      "inputs": [],
      "name": "getPlayer2Address",
      "outputs": [
        {
          "internalType": "address",
          "name": "",
          "type": "address"
        }
      ],
      "payable": false,
      "stateMutability": "view",
      "type": "function"
    },
    {
      "constant": true,
      "inputs": [],
      "name": "getPlayer1Balance",
      "outputs": [
        {
          "internalType": "uint256",
          "name": "",
          "type": "uint256"
        }
      ],
      "payable": false,
      "stateMutability": "view",
      "type": "function"
    },
    {
      "constant": true,
      "inputs": [],
      "name": "getPlayer2Balance",
      "outputs": [
        {
          "internalType": "uint256",
          "name": "",
          "type": "uint256"
        }
      ],
      "payable": false,
      "stateMutability": "view",
      "type": "function"
    },
    {
      "constant": false,
      "inputs": [
        {
          "internalType": "address",
          "name": "_player1",
          "type": "address"
        },
        {
          "internalType": "address",
          "name": "_player2",
          "type": "address"
        }
      ],
      "name": "setPlayer",
      "outputs": [],
      "payable": false,
      "stateMutability": "nonpayable",
      "type": "function"
    },
    {
      "constant": true,
      "inputs": [
        {
          "internalType": "address",
          "name": "_player1",
          "type": "address"
        },
        {
          "internalType": "uint16",
          "name": "_address1res",
          "type": "uint16"
        },
        {
          "internalType": "address",
          "name": "_player2",
          "type": "address"
        },
        {
          "internalType": "uint16",
          "name": "_address2res",
          "type": "uint16"
        }
      ],
      "name": "bet",
      "outputs": [
        {
          "internalType": "uint16",
          "name": "",
          "type": "uint16"
        },
        {
          "internalType": "address",
          "name": "",
          "type": "address"
        }
      ],
      "payable": false,
      "stateMutability": "view",
      "type": "function"
    },
    {
      "constant": false,
      "inputs": [
        {
          "internalType": "address payable",
          "name": "_transferTo",
          "type": "address"
        }
      ],
      "name": "transfer",
      "outputs": [
        {
          "internalType": "bool",
          "name": "",
          "type": "bool"
        }
      ],
      "payable": true,
      "stateMutability": "payable",
      "type": "function"
    }
  ],
  "bytecode": "0x608060405234801561001057600080fd5b506105cb806100206000396000f3fe6080604052600436106100705760003560e01c80634302696a1161004e5780634302696a14610204578063a9f346e314610275578063e9a6421f146102a0578063f5660f05146102f757610070565b8063078b163d146100755780631a69523014610151578063225d76f0146101ad575b600080fd5b34801561008157600080fd5b506101006004803603608081101561009857600080fd5b81019080803573ffffffffffffffffffffffffffffffffffffffff169060200190929190803561ffff169060200190929190803573ffffffffffffffffffffffffffffffffffffffff169060200190929190803561ffff169060200190929190505050610322565b604051808361ffff1661ffff1681526020018273ffffffffffffffffffffffffffffffffffffffff1673ffffffffffffffffffffffffffffffffffffffff1681526020019250505060405180910390f35b6101936004803603602081101561016757600080fd5b81019080803573ffffffffffffffffffffffffffffffffffffffff169060200190929190505050610371565b604051808215151515815260200191505060405180910390f35b3480156101b957600080fd5b506101c2610462565b604051808273ffffffffffffffffffffffffffffffffffffffff1673ffffffffffffffffffffffffffffffffffffffff16815260200191505060405180910390f35b34801561021057600080fd5b506102736004803603604081101561022757600080fd5b81019080803573ffffffffffffffffffffffffffffffffffffffff169060200190929190803573ffffffffffffffffffffffffffffffffffffffff16906020019092919050505061048c565b005b34801561028157600080fd5b5061028a610511565b6040518082815260200191505060405180910390f35b3480156102ac57600080fd5b506102b561051b565b604051808273ffffffffffffffffffffffffffffffffffffffff1673ffffffffffffffffffffffffffffffffffffffff16815260200191505060405180910390f35b34801561030357600080fd5b5061030c610544565b6040518082815260200191505060405180910390f35b600080600061032f61054e565b905060008161ffff168761ffff16141561034b57879050610360565b8161ffff168561ffff16141561035f578590505b5b818193509350505094509492505050565b60008173ffffffffffffffffffffffffffffffffffffffff166108fc349081150290604051600060405180830381858888f193505050501580156103b9573d6000803e3d6000fd5b507f41f7a8a1a70f43ecf6769f65a9933ba3370058d8e3422511a890553ba75ff3e8823334604051808473ffffffffffffffffffffffffffffffffffffffff1673ffffffffffffffffffffffffffffffffffffffff1681526020018373ffffffffffffffffffffffffffffffffffffffff1673ffffffffffffffffffffffffffffffffffffffff168152602001828152602001935050505060405180910390a160019050919050565b6000600160009054906101000a900473ffffffffffffffffffffffffffffffffffffffff16905090565b816000806101000a81548173ffffffffffffffffffffffffffffffffffffffff021916908373ffffffffffffffffffffffffffffffffffffffff16021790555080600160006101000a81548173ffffffffffffffffffffffffffffffffffffffff021916908373ffffffffffffffffffffffffffffffffffffffff1602179055505050565b6000600254905090565b60008060009054906101000a900473ffffffffffffffffffffffffffffffffffffffff16905090565b6000600354905090565b600080444260405160200180838152602001828152602001925050506040516020818303038152906040528051906020012060001c90506002818161058f57fe5b069150509056fea265627a7a7231582055f0bac004fdc2038e55f06ebec088ba3a9211a024919771e27f0e4cb9b2744f64736f6c63430005100032",
  "source": "pragma solidity >=0.4.22 <0.9.0;\n\ncontract KOSCoinflip {\n    address player1;\n    address player2;\n    uint256 player1Balance;\n    uint256 player2Balance;\n\n    event TransferFund(\n        address _transferTo,\n        address _transferFrom,\n        uint256 amount\n    );\n\n    function getPlayer1Address() public view returns (address) {\n        return player1;\n    }\n\n    function getPlayer2Address() public view returns (address) {\n        return player2;\n    }\n\n    function getPlayer1Balance() public view returns (uint256) {\n        return player1Balance;\n    }\n\n    function getPlayer2Balance() public view returns (uint256) {\n        return player2Balance;\n    }\n\n    function random() private view returns (uint16) {\n        uint256 randomHash =\n            uint256(\n                keccak256(abi.encodePacked(block.difficulty, block.timestamp))\n            );\n        return uint16(randomHash % 2);\n    }\n\n    function setPlayer(address _player1, address _player2) public {\n        player1 = _player1;\n        player2 = _player2;\n    }\n\n    function bet(\n        address _player1,\n        uint16 _address1res,\n        address _player2,\n        uint16 _address2res\n    ) public view returns (uint16, address) {\n        uint16 answer = random();\n        address winner;\n        if (_address1res == answer) {\n            winner = _player1;\n        } else if (_address2res == answer) {\n            winner = _player2;\n        }\n        return (answer, winner);\n    }\n\n    function transfer(address payable _transferTo)\n        public\n        payable\n        returns (bool)\n    {\n        // transferTo = _transferTo;\n        _transferTo.transfer(msg.value);\n\n        emit TransferFund(_transferTo, msg.sender, msg.value);\n\n        return true;\n    }\n}\n",
  "sourcePath": "/Users/surasith/Desktop/angular/crypto-coin-game/src/app/cores/services/truffle/contracts/KOSCoinflip.sol",
  "compiler": {
    "name": "solc",
    "version": "0.5.16+commit.9c3226ce.Emscripten.clang"
  },
  "schemaVersion": "3.4.1",
  "updatedAt": "2021-06-20T11:43:18.324Z",
  "networkType": "ethereum",
  "devdoc": {
    "methods": {}
  },
  "userdoc": {
    "methods": {}
  }
}