{
  "contractName": "KOSCoinflip",
  "abi": [
    {
      "inputs": [
        {
          "internalType": "address",
          "name": "_player1",
          "type": "address"
        },
        {
          "internalType": "address",
          "name": "_player2",
          "type": "address"
        }
      ],
      "payable": false,
      "stateMutability": "nonpayable",
      "type": "constructor"
    },
    {
      "constant": true,
      "inputs": [],
      "name": "getPlayer1Address",
      "outputs": [
        {
          "internalType": "address",
          "name": "",
          "type": "address"
        }
      ],
      "payable": false,
      "stateMutability": "view",
      "type": "function"
    },
    {
      "constant": true,
      "inputs": [],
      "name": "getPlayer2Address",
      "outputs": [
        {
          "internalType": "address",
          "name": "",
          "type": "address"
        }
      ],
      "payable": false,
      "stateMutability": "view",
      "type": "function"
    },
    {
      "constant": true,
      "inputs": [],
      "name": "getPlayer1Balance",
      "outputs": [
        {
          "internalType": "uint256",
          "name": "",
          "type": "uint256"
        }
      ],
      "payable": false,
      "stateMutability": "view",
      "type": "function"
    },
    {
      "constant": true,
      "inputs": [],
      "name": "getPlayer2Balance",
      "outputs": [
        {
          "internalType": "uint256",
          "name": "",
          "type": "uint256"
        }
      ],
      "payable": false,
      "stateMutability": "view",
      "type": "function"
    },
    {
      "constant": true,
      "inputs": [
        {
          "internalType": "uint16",
          "name": "_address1res",
          "type": "uint16"
        },
        {
          "internalType": "uint16",
          "name": "_address2res",
          "type": "uint16"
        }
      ],
      "name": "bet",
      "outputs": [
        {
          "internalType": "uint16",
          "name": "",
          "type": "uint16"
        },
        {
          "internalType": "address",
          "name": "",
          "type": "address"
        }
      ],
      "payable": false,
      "stateMutability": "view",
      "type": "function"
    }
  ],
  "bytecode": "0x608060405234801561001057600080fd5b5060405161044b38038061044b8339818101604052604081101561003357600080fd5b810190808051906020019092919080519060200190929190505050816000806101000a81548173ffffffffffffffffffffffffffffffffffffffff021916908373ffffffffffffffffffffffffffffffffffffffff1602179055508173ffffffffffffffffffffffffffffffffffffffff163160028190555080600160006101000a81548173ffffffffffffffffffffffffffffffffffffffff021916908373ffffffffffffffffffffffffffffffffffffffff1602179055508073ffffffffffffffffffffffffffffffffffffffff1631600381905550505061032f8061011c6000396000f3fe608060405234801561001057600080fd5b50600436106100575760003560e01c8063225d76f01461005c5780638499e550146100a6578063a9f346e314610135578063e9a6421f14610153578063f5660f051461019d575b600080fd5b6100646101bb565b604051808273ffffffffffffffffffffffffffffffffffffffff1673ffffffffffffffffffffffffffffffffffffffff16815260200191505060405180910390f35b6100e4600480360360408110156100bc57600080fd5b81019080803561ffff169060200190929190803561ffff1690602001909291905050506101e5565b604051808361ffff1661ffff1681526020018273ffffffffffffffffffffffffffffffffffffffff1673ffffffffffffffffffffffffffffffffffffffff1681526020019250505060405180910390f35b61013d610275565b6040518082815260200191505060405180910390f35b61015b61027f565b604051808273ffffffffffffffffffffffffffffffffffffffff1673ffffffffffffffffffffffffffffffffffffffff16815260200191505060405180910390f35b6101a56102a8565b6040518082815260200191505060405180910390f35b6000600160009054906101000a900473ffffffffffffffffffffffffffffffffffffffff16905090565b60008060006101f26102b2565b905060008161ffff168661ffff16141561022f576000809054906101000a900473ffffffffffffffffffffffffffffffffffffffff169050610266565b8161ffff168561ffff16141561026557600160009054906101000a900473ffffffffffffffffffffffffffffffffffffffff1690505b5b81819350935050509250929050565b6000600254905090565b60008060009054906101000a900473ffffffffffffffffffffffffffffffffffffffff16905090565b6000600354905090565b600080444260405160200180838152602001828152602001925050506040516020818303038152906040528051906020012060001c9050600281816102f357fe5b069150509056fea265627a7a72315820a5aaad4a8beb59a115c0711636ac33a49e0307e6c7e9b6fb488102bd99a3a43364736f6c63430005100032",
  "source": "pragma solidity >=0.4.22 <0.9.0;\n\ncontract KOSCoinflip {\n    address player1;\n    address player2;\n    uint256 player1Balance;\n    uint256 player2Balance;\n\n    constructor(address _player1, address _player2) public {\n        player1 = _player1;\n        player1Balance = _player1.balance;\n        player2 = _player2;\n        player2Balance = _player2.balance;\n    }\n\n    function getPlayer1Address() public view returns (address) {\n        return player1;\n    }\n\n    function getPlayer2Address() public view returns (address) {\n        return player2;\n    }\n\n    function getPlayer1Balance() public view returns (uint256) {\n        return player1Balance;\n    }\n\n    function getPlayer2Balance() public view returns (uint256) {\n        return player2Balance;\n    }\n\n    function random() private view returns (uint16) {\n        uint256 randomHash =\n            uint256(\n                keccak256(abi.encodePacked(block.difficulty, block.timestamp))\n            );\n        return uint16(randomHash % 2);\n    }\n\n    function bet(uint16 _address1res, uint16 _address2res)\n        public\n        view\n        returns (uint16, address)\n    {\n        uint16 answer = random();\n        address winner;\n        if (_address1res == answer) {\n            winner = player1;\n        } else if (_address2res == answer) {\n            winner = player2;\n        }\n        return (answer, winner);\n    }\n}\n",
  "sourcePath": "/Users/surasith/test-coinflip-game/contracts/KOSCoinflip.sol",
  "compiler": {
    "name": "solc",
    "version": "0.5.16+commit.9c3226ce.Emscripten.clang"
  },
  "schemaVersion": "3.4.1",
  "updatedAt": "2021-06-20T07:27:03.031Z",
  "networkType": "ethereum",
  "devdoc": {
    "methods": {}
  },
  "userdoc": {
    "methods": {}
  }
}